{
  "_format": "hh-sol-artifact-1",
  "contractName": "DAGRegistry",
  "sourceName": "contracts/DAGRegistry.sol",
  "abi": [
    {
      "inputs": [],
      "stateMutability": "nonpayable",
      "type": "constructor"
    },
    {
      "inputs": [
        {
          "internalType": "address",
          "name": "owner",
          "type": "address"
        }
      ],
      "name": "OwnableInvalidOwner",
      "type": "error"
    },
    {
      "inputs": [
        {
          "internalType": "address",
          "name": "account",
          "type": "address"
        }
      ],
      "name": "OwnableUnauthorizedAccount",
      "type": "error"
    },
    {
      "anonymous": false,
      "inputs": [
        {
          "indexed": true,
          "internalType": "bytes32",
          "name": "taskId",
          "type": "bytes32"
        }
      ],
      "name": "DAGCompleted",
      "type": "event"
    },
    {
      "anonymous": false,
      "inputs": [
        {
          "indexed": true,
          "internalType": "bytes32",
          "name": "nodeId",
          "type": "bytes32"
        }
      ],
      "name": "NodeReset",
      "type": "event"
    },
    {
      "anonymous": false,
      "inputs": [
        {
          "indexed": true,
          "internalType": "bytes32",
          "name": "nodeId",
          "type": "bytes32"
        },
        {
          "indexed": true,
          "internalType": "address",
          "name": "agent",
          "type": "address"
        },
        {
          "indexed": false,
          "internalType": "bytes32",
          "name": "outputHash",
          "type": "bytes32"
        }
      ],
      "name": "OutputSubmitted",
      "type": "event"
    },
    {
      "anonymous": false,
      "inputs": [
        {
          "indexed": true,
          "internalType": "address",
          "name": "previousOwner",
          "type": "address"
        },
        {
          "indexed": true,
          "internalType": "address",
          "name": "newOwner",
          "type": "address"
        }
      ],
      "name": "OwnershipTransferred",
      "type": "event"
    },
    {
      "anonymous": false,
      "inputs": [
        {
          "indexed": true,
          "internalType": "bytes32",
          "name": "taskId",
          "type": "bytes32"
        },
        {
          "indexed": true,
          "internalType": "address",
          "name": "planner",
          "type": "address"
        }
      ],
      "name": "PlannerSelected",
      "type": "event"
    },
    {
      "anonymous": false,
      "inputs": [
        {
          "indexed": true,
          "internalType": "bytes32",
          "name": "nodeId",
          "type": "bytes32"
        },
        {
          "indexed": true,
          "internalType": "address",
          "name": "agent",
          "type": "address"
        }
      ],
      "name": "SubtaskClaimed",
      "type": "event"
    },
    {
      "inputs": [
        {
          "internalType": "bytes32",
          "name": "taskId",
          "type": "bytes32"
        }
      ],
      "name": "claimPlanner",
      "outputs": [
        {
          "internalType": "bool",
          "name": "",
          "type": "bool"
        }
      ],
      "stateMutability": "nonpayable",
      "type": "function"
    },
    {
      "inputs": [
        {
          "internalType": "bytes32",
          "name": "nodeId",
          "type": "bytes32"
        }
      ],
      "name": "claimSubtask",
      "outputs": [
        {
          "internalType": "bool",
          "name": "",
          "type": "bool"
        }
      ],
      "stateMutability": "nonpayable",
      "type": "function"
    },
    {
      "inputs": [],
      "name": "escrow",
      "outputs": [
        {
          "internalType": "contract ISwarmEscrow",
          "name": "",
          "type": "address"
        }
      ],
      "stateMutability": "view",
      "type": "function"
    },
    {
      "inputs": [
        {
          "internalType": "bytes32",
          "name": "nodeId",
          "type": "bytes32"
        }
      ],
      "name": "markValidated",
      "outputs": [],
      "stateMutability": "nonpayable",
      "type": "function"
    },
    {
      "inputs": [
        {
          "internalType": "bytes32",
          "name": "",
          "type": "bytes32"
        }
      ],
      "name": "nodes",
      "outputs": [
        {
          "internalType": "bytes32",
          "name": "nodeId",
          "type": "bytes32"
        },
        {
          "internalType": "bytes32",
          "name": "taskId",
          "type": "bytes32"
        },
        {
          "internalType": "address",
          "name": "claimedBy",
          "type": "address"
        },
        {
          "internalType": "bytes32",
          "name": "outputHash",
          "type": "bytes32"
        },
        {
          "internalType": "bool",
          "name": "validated",
          "type": "bool"
        }
      ],
      "stateMutability": "view",
      "type": "function"
    },
    {
      "inputs": [],
      "name": "owner",
      "outputs": [
        {
          "internalType": "address",
          "name": "",
          "type": "address"
        }
      ],
      "stateMutability": "view",
      "type": "function"
    },
    {
      "inputs": [
        {
          "internalType": "bytes32",
          "name": "",
          "type": "bytes32"
        }
      ],
      "name": "planners",
      "outputs": [
        {
          "internalType": "address",
          "name": "",
          "type": "address"
        }
      ],
      "stateMutability": "view",
      "type": "function"
    },
    {
      "inputs": [
        {
          "internalType": "bytes32",
          "name": "taskId",
          "type": "bytes32"
        },
        {
          "internalType": "bytes32[]",
          "name": "nodeIds",
          "type": "bytes32[]"
        }
      ],
      "name": "registerDAG",
      "outputs": [],
      "stateMutability": "nonpayable",
      "type": "function"
    },
    {
      "inputs": [],
      "name": "renounceOwnership",
      "outputs": [],
      "stateMutability": "nonpayable",
      "type": "function"
    },
    {
      "inputs": [
        {
          "internalType": "bytes32",
          "name": "nodeId",
          "type": "bytes32"
        }
      ],
      "name": "resetNode",
      "outputs": [],
      "stateMutability": "nonpayable",
      "type": "function"
    },
    {
      "inputs": [
        {
          "internalType": "address",
          "name": "_escrow",
          "type": "address"
        },
        {
          "internalType": "address",
          "name": "_vault",
          "type": "address"
        }
      ],
      "name": "setAddresses",
      "outputs": [],
      "stateMutability": "nonpayable",
      "type": "function"
    },
    {
      "inputs": [
        {
          "internalType": "bytes32",
          "name": "nodeId",
          "type": "bytes32"
        },
        {
          "internalType": "bytes32",
          "name": "outputHash",
          "type": "bytes32"
        }
      ],
      "name": "submitOutput",
      "outputs": [],
      "stateMutability": "nonpayable",
      "type": "function"
    },
    {
      "inputs": [
        {
          "internalType": "bytes32",
          "name": "",
          "type": "bytes32"
        },
        {
          "internalType": "uint256",
          "name": "",
          "type": "uint256"
        }
      ],
      "name": "taskNodes",
      "outputs": [
        {
          "internalType": "bytes32",
          "name": "",
          "type": "bytes32"
        }
      ],
      "stateMutability": "view",
      "type": "function"
    },
    {
      "inputs": [
        {
          "internalType": "address",
          "name": "newOwner",
          "type": "address"
        }
      ],
      "name": "transferOwnership",
      "outputs": [],
      "stateMutability": "nonpayable",
      "type": "function"
    },
    {
      "inputs": [],
      "name": "vault",
      "outputs": [
        {
          "internalType": "address",
          "name": "",
          "type": "address"
        }
      ],
      "stateMutability": "view",
      "type": "function"
    }
  ],
  "bytecode": "0x608060405234801561001057600080fd5b50338061003757604051631e4fbdf760e01b81526000600482015260240160405180910390fd5b61004081610046565b50610096565b600080546001600160a01b038381166001600160a01b0319831681178455604051919092169283917f8be0079c531659141344cd1fd0a4f28419497f9722a3daafe3b4186f6b6457e09190a35050565b610d9c806100a56000396000f3fe608060405234801561001057600080fd5b50600436106100f55760003560e01c8063715018a611610097578063d86e697d11610066578063d86e697d14610211578063e2fdcc1714610294578063f2fde38b146102a7578063fbfa77cf146102ba57600080fd5b8063715018a6146101d25780637b664956146101da5780638da5cb5b146101ed57806390107afe146101fe57600080fd5b80634ce94eeb116100d35780634ce94eeb14610148578063567839001461015b57806363326b4d1461017e57806369b6d167146101bf57600080fd5b806302947a18146100fa5780632d91f7b51461010f578063485d22fc14610135575b600080fd5b61010d610108366004610b91565b6102cd565b005b61012261011d366004610baa565b6105c6565b6040519081526020015b60405180910390f35b61010d610143366004610baa565b6105f7565b61010d610156366004610b91565b6106a6565b61016e610169366004610b91565b610755565b604051901515815260200161012c565b6101a761018c366004610b91565b6003602052600090815260409020546001600160a01b031681565b6040516001600160a01b03909116815260200161012c565b61016e6101cd366004610b91565b6107ce565b61010d610869565b61010d6101e8366004610bcc565b61087d565b6000546001600160a01b03166101a7565b61010d61020c366004610c67565b610a40565b61025c61021f366004610b91565b600460208190526000918252604090912080546001820154600283015460038401549390940154919390926001600160a01b039091169160ff1685565b6040805195865260208601949094526001600160a01b039092169284019290925260608301919091521515608082015260a00161012c565b6001546101a7906001600160a01b031681565b61010d6102b5366004610c9a565b610a76565b6002546101a7906001600160a01b031681565b600081815260046020526040902060010154806103225760405162461bcd60e51b815260206004820152600e60248201526d139bd919481b9bdd08199bdd5b9960921b60448201526064015b60405180910390fd5b6002546001600160a01b031633148061035157506000818152600360205260409020546001600160a01b031633145b61038c5760405162461bcd60e51b815260206004820152600c60248201526b155b985d5d1a1bdc9a5e995960a21b6044820152606401610319565b6000828152600460208181526040808420909201805460ff1916600117905583835260058152818320805483518184028101840190945280845290918301828280156103f757602002820191906000526020600020905b8154815260200190600101908083116103e3575b505050505090506000600190506000825167ffffffffffffffff81111561042057610420610cbc565b604051908082528060200260200182016040528015610449578160200160208202803683370190505b50905060005b835181101561051b576004600085838151811061046e5761046e610cd2565b60209081029190910181015182528101919091526040016000206004015460ff1661049c576000925061051b565b600460008583815181106104b2576104b2610cd2565b6020026020010151815260200190815260200160002060020160009054906101000a90046001600160a01b03168282815181106104f1576104f1610cd2565b6001600160a01b03909216602092830291909101909101528061051381610ce8565b91505061044f565b5081801561052a575060008351115b156105bf5760405184907fd803bcf0e46345d6cd3b7fa68a7c7428d03dd3a3d79bc4f67dce73358950005b90600090a2600154604051631c8d388160e11b81526001600160a01b039091169063391a71029061058c9087908590600401610d0f565b600060405180830381600087803b1580156105a657600080fd5b505af11580156105ba573d6000803e3d6000fd5b505050505b5050505050565b600560205281600052604060002081815481106105e257600080fd5b90600052602060002001600091509150505481565b6000828152600460205260409020600201546001600160a01b031633146106505760405162461bcd60e51b815260206004820152600d60248201526c13db9b1e4818db185a5b585b9d609a1b6044820152606401610319565b6000828152600460205260409081902060030182905551339083907f740e6dafd6da30dc98d84f0bd8d1f98b83cd65e690416e437090e7cdfc9482b89061069a9085815260200190565b60405180910390a35050565b6002546001600160a01b031633146106f75760405162461bcd60e51b815260206004820152601460248201527313db9b1e481d985d5b1d0818d85b881c995cd95d60621b6044820152606401610319565b60008181526004602081905260408083206002810180546001600160a01b031916905560038101849055909101805460ff191690555182917fdecfd087bf0e83fc425043c85c6f97c852537ff4c9f653247a55afc0ce58790d91a250565b6000818152600360205260408120546001600160a01b03161561077a57506000919050565b60008281526003602052604080822080546001600160a01b031916339081179091559051909184917f61d51f24dc5da4e01d124e8e210030dde3c240850f698d5d1a299d78fc2c6a4b9190a3506001919050565b600081815260046020526040812060010154158061080557506000828152600460205260409020600201546001600160a01b031615155b1561081257506000919050565b60008281526004602052604080822060020180546001600160a01b031916339081179091559051909184917f6c614e7eedd9976e10c5e93bb3eff1ec453bf255a483749c8186b29d48fb8f8a9190a3506001919050565b610871610ab4565b61087b6000610ae1565b565b6000838152600360205260409020546001600160a01b031633146108db5760405162461bcd60e51b815260206004820152601560248201527427b7363c9030b9b9b4b3b732b210383630b73732b960591b6044820152606401610319565b6000838152600560205260409020541561092c5760405162461bcd60e51b8152602060048201526012602482015271105b1c9958591e481c9959da5cdd195c995960721b6044820152606401610319565b806109655760405162461bcd60e51b8152602060048201526009602482015268456d7074792044414760b81b6044820152606401610319565b60005b81811015610a2057600083838381811061098457610984610cd2565b6040805160a081018252602092830294909401358085528285018a815260008684018181526060880182815260808901838152948352600496879052949091209651875590516001870155516002860180546001600160a01b0319166001600160a01b0390921691909117905590516003850155519201805460ff19169215159290921790915550819050610a1881610ce8565b915050610968565b506000838152600560205260409020610a3a908383610b31565b50505050565b610a48610ab4565b600180546001600160a01b039384166001600160a01b03199182161790915560028054929093169116179055565b610a7e610ab4565b6001600160a01b038116610aa857604051631e4fbdf760e01b815260006004820152602401610319565b610ab181610ae1565b50565b6000546001600160a01b0316331461087b5760405163118cdaa760e01b8152336004820152602401610319565b600080546001600160a01b038381166001600160a01b0319831681178455604051919092169283917f8be0079c531659141344cd1fd0a4f28419497f9722a3daafe3b4186f6b6457e09190a35050565b828054828255906000526020600020908101928215610b6c579160200282015b82811115610b6c578235825591602001919060010190610b51565b50610b78929150610b7c565b5090565b5b80821115610b785760008155600101610b7d565b600060208284031215610ba357600080fd5b5035919050565b60008060408385031215610bbd57600080fd5b50508035926020909101359150565b600080600060408486031215610be157600080fd5b83359250602084013567ffffffffffffffff80821115610c0057600080fd5b818601915086601f830112610c1457600080fd5b813581811115610c2357600080fd5b8760208260051b8501011115610c3857600080fd5b6020830194508093505050509250925092565b80356001600160a01b0381168114610c6257600080fd5b919050565b60008060408385031215610c7a57600080fd5b610c8383610c4b565b9150610c9160208401610c4b565b90509250929050565b600060208284031215610cac57600080fd5b610cb582610c4b565b9392505050565b634e487b7160e01b600052604160045260246000fd5b634e487b7160e01b600052603260045260246000fd5b600060018201610d0857634e487b7160e01b600052601160045260246000fd5b5060010190565b6000604082018483526020604081850152818551808452606086019150828701935060005b81811015610d595784516001600160a01b031683529383019391830191600101610d34565b509097965050505050505056fea264697066735822122008e46b1f8a7fd73a04513379653560f3cdbbefc4351d35e09a9eb4eb2ba9925a64736f6c63430008140033",
  "linkReferences": {},
  "deployedLinkReferences": {}
}