{
  "_format": "hh-sol-artifact-1",
  "contractName": "SlashingVault",
  "sourceName": "contracts/SlashingVault.sol",
  "abi": [
    {
      "inputs": [
        {
          "internalType": "address",
          "name": "_escrow",
          "type": "address"
        },
        {
          "internalType": "address",
          "name": "_registry",
          "type": "address"
        }
      ],
      "stateMutability": "nonpayable",
      "type": "constructor"
    },
    {
      "inputs": [
        {
          "internalType": "address",
          "name": "owner",
          "type": "address"
        }
      ],
      "name": "OwnableInvalidOwner",
      "type": "error"
    },
    {
      "inputs": [
        {
          "internalType": "address",
          "name": "account",
          "type": "address"
        }
      ],
      "name": "OwnableUnauthorizedAccount",
      "type": "error"
    },
    {
      "anonymous": false,
      "inputs": [
        {
          "indexed": true,
          "internalType": "bytes32",
          "name": "nodeId",
          "type": "bytes32"
        },
        {
          "indexed": true,
          "internalType": "address",
          "name": "challenger",
          "type": "address"
        },
        {
          "indexed": true,
          "internalType": "address",
          "name": "accused",
          "type": "address"
        }
      ],
      "name": "ChallengeRaised",
      "type": "event"
    },
    {
      "anonymous": false,
      "inputs": [
        {
          "indexed": true,
          "internalType": "bytes32",
          "name": "nodeId",
          "type": "bytes32"
        },
        {
          "indexed": true,
          "internalType": "address",
          "name": "challenger",
          "type": "address"
        }
      ],
      "name": "FalseChallenge",
      "type": "event"
    },
    {
      "anonymous": false,
      "inputs": [
        {
          "indexed": true,
          "internalType": "address",
          "name": "previousOwner",
          "type": "address"
        },
        {
          "indexed": true,
          "internalType": "address",
          "name": "newOwner",
          "type": "address"
        }
      ],
      "name": "OwnershipTransferred",
      "type": "event"
    },
    {
      "anonymous": false,
      "inputs": [
        {
          "indexed": true,
          "internalType": "bytes32",
          "name": "nodeId",
          "type": "bytes32"
        },
        {
          "indexed": true,
          "internalType": "address",
          "name": "accused",
          "type": "address"
        }
      ],
      "name": "SlashExecuted",
      "type": "event"
    },
    {
      "inputs": [],
      "name": "CHALLENGE_WINDOW",
      "outputs": [
        {
          "internalType": "uint256",
          "name": "",
          "type": "uint256"
        }
      ],
      "stateMutability": "view",
      "type": "function"
    },
    {
      "inputs": [
        {
          "internalType": "bytes32",
          "name": "nodeId",
          "type": "bytes32"
        },
        {
          "internalType": "address",
          "name": "accused",
          "type": "address"
        }
      ],
      "name": "challenge",
      "outputs": [],
      "stateMutability": "nonpayable",
      "type": "function"
    },
    {
      "inputs": [
        {
          "internalType": "bytes32",
          "name": "",
          "type": "bytes32"
        }
      ],
      "name": "challenges",
      "outputs": [
        {
          "internalType": "bytes32",
          "name": "nodeId",
          "type": "bytes32"
        },
        {
          "internalType": "address",
          "name": "challenger",
          "type": "address"
        },
        {
          "internalType": "address",
          "name": "accused",
          "type": "address"
        },
        {
          "internalType": "uint256",
          "name": "timestamp",
          "type": "uint256"
        },
        {
          "internalType": "bool",
          "name": "resolved",
          "type": "bool"
        }
      ],
      "stateMutability": "view",
      "type": "function"
    },
    {
      "inputs": [],
      "name": "escrow",
      "outputs": [
        {
          "internalType": "contract ISwarmEscrow",
          "name": "",
          "type": "address"
        }
      ],
      "stateMutability": "view",
      "type": "function"
    },
    {
      "inputs": [],
      "name": "owner",
      "outputs": [
        {
          "internalType": "address",
          "name": "",
          "type": "address"
        }
      ],
      "stateMutability": "view",
      "type": "function"
    },
    {
      "inputs": [],
      "name": "registry",
      "outputs": [
        {
          "internalType": "contract IDAGRegistry",
          "name": "",
          "type": "address"
        }
      ],
      "stateMutability": "view",
      "type": "function"
    },
    {
      "inputs": [],
      "name": "renounceOwnership",
      "outputs": [],
      "stateMutability": "nonpayable",
      "type": "function"
    },
    {
      "inputs": [
        {
          "internalType": "bytes32",
          "name": "nodeId",
          "type": "bytes32"
        },
        {
          "internalType": "bool",
          "name": "accusedGuilty",
          "type": "bool"
        }
      ],
      "name": "resolveChallenge",
      "outputs": [],
      "stateMutability": "nonpayable",
      "type": "function"
    },
    {
      "inputs": [
        {
          "internalType": "address",
          "name": "newOwner",
          "type": "address"
        }
      ],
      "name": "transferOwnership",
      "outputs": [],
      "stateMutability": "nonpayable",
      "type": "function"
    }
  ],
  "bytecode": "0x60c060405234801561001057600080fd5b50604051610a88380380610a8883398101604081905261002f916100e2565b338061005557604051631e4fbdf760e01b81526000600482015260240160405180910390fd5b61005e81610076565b506001600160a01b039182166080521660a052610115565b600080546001600160a01b038381166001600160a01b0319831681178455604051919092169283917f8be0079c531659141344cd1fd0a4f28419497f9722a3daafe3b4186f6b6457e09190a35050565b80516001600160a01b03811681146100dd57600080fd5b919050565b600080604083850312156100f557600080fd5b6100fe836100c6565b915061010c602084016100c6565b90509250929050565b60805160a0516109336101556000396000818160a70152818161031501526104310152600081816101bb015281816103bf015261050301526109336000f3fe608060405234801561001057600080fd5b50600436106100935760003560e01c8063c1e69b6611610066578063c1e69b661461010a578063c1f67ab31461018c578063d62aad291461019f578063e2fdcc17146101b6578063f2fde38b146101dd57600080fd5b8063715018a6146100985780637b103999146100a25780637d89122d146100e65780638da5cb5b146100f9575b600080fd5b6100a06101f0565b005b6100c97f000000000000000000000000000000000000000000000000000000000000000081565b6040516001600160a01b0390911681526020015b60405180910390f35b6100a06100f43660046107d8565b610204565b6000546001600160a01b03166100c9565b610156610118366004610808565b6001602081905260009182526040909120805491810154600282015460038301546004909301546001600160a01b0392831693919092169160ff1685565b604080519586526001600160a01b039485166020870152929093169184019190915260608301521515608082015260a0016100dd565b6100a061019a366004610836565b6105b1565b6101a8610e1081565b6040519081526020016100dd565b6100c97f000000000000000000000000000000000000000000000000000000000000000081565b6100a06101eb36600461085b565b61070f565b6101f861074d565b610202600061077a565b565b61020c61074d565b600082815260016020526040812060038101549091036102625760405162461bcd60e51b815260206004820152600c60248201526b4e6f206368616c6c656e676560a01b60448201526064015b60405180910390fd5b600481015460ff16156102aa5760405162461bcd60e51b815260206004820152601060248201526f105b1c9958591e481c995cdbdb1d995960821b6044820152606401610259565b610e1081600301546102bc919061087f565b4211156102fc5760405162461bcd60e51b815260206004820152600e60248201526d15da5b991bddc8195e1c1a5c995960921b6044820152606401610259565b60405163d86e697d60e01b8152600481018490526000907f00000000000000000000000000000000000000000000000000000000000000006001600160a01b03169063d86e697d9060240160a060405180830381865afa158015610364573d6000803e3d6000fd5b505050506040513d601f19601f8201168201806040525081019061038891906108a6565b50505091505082156104d8576002820154604051632cf0abe560e01b8152600481018390526001600160a01b0391821660248201527f000000000000000000000000000000000000000000000000000000000000000090911690632cf0abe590604401600060405180830381600087803b15801561040557600080fd5b505af1158015610419573d6000803e3d6000fd5b5050604051634ce94eeb60e01b8152600481018790527f00000000000000000000000000000000000000000000000000000000000000006001600160a01b03169250634ce94eeb9150602401600060405180830381600087803b15801561047f57600080fd5b505af1158015610493573d6000803e3d6000fd5b50505060028301546040516001600160a01b03909116915085907f94bdfacde7be3847a84d568efeeebca952724caefd2e0c930ef7e325bc9331ea90600090a361059e565b6001820154604051632cf0abe560e01b8152600481018390526001600160a01b0391821660248201527f000000000000000000000000000000000000000000000000000000000000000090911690632cf0abe590604401600060405180830381600087803b15801561054957600080fd5b505af115801561055d573d6000803e3d6000fd5b50505060018301546040516001600160a01b03909116915085907f0fa951f824a45212dd47412fe07d5ce1fa6927afb2571346635cf06ab238dd9690600090a35b50600401805460ff191660011790555050565b600082815260016020526040902060030154156106035760405162461bcd60e51b815260206004820152601060248201526f4368616c6c656e67652065786973747360801b6044820152606401610259565b6001600160a01b03811661064b5760405162461bcd60e51b815260206004820152600f60248201526e125b9d985b1a59081858d8dd5cd959608a1b6044820152606401610259565b6040805160a0810182528381523360208083018281526001600160a01b0386811685870181815242606088019081526000608089018181528c82526001978890528a822099518a55955196890180549786166001600160a01b03199889161790559151600289018054919095169616959095179092559251600386015590516004909401805494151560ff19909516949094179093559251909185917f3c0c1576e4bd45d067eba4a24df7c8be81848f20e11aa31f4ebf996631c00d9d9190a45050565b61071761074d565b6001600160a01b03811661074157604051631e4fbdf760e01b815260006004820152602401610259565b61074a8161077a565b50565b6000546001600160a01b031633146102025760405163118cdaa760e01b8152336004820152602401610259565b600080546001600160a01b038381166001600160a01b0319831681178455604051919092169283917f8be0079c531659141344cd1fd0a4f28419497f9722a3daafe3b4186f6b6457e09190a35050565b801515811461074a57600080fd5b600080604083850312156107eb57600080fd5b8235915060208301356107fd816107ca565b809150509250929050565b60006020828403121561081a57600080fd5b5035919050565b6001600160a01b038116811461074a57600080fd5b6000806040838503121561084957600080fd5b8235915060208301356107fd81610821565b60006020828403121561086d57600080fd5b813561087881610821565b9392505050565b808201808211156108a057634e487b7160e01b600052601160045260246000fd5b92915050565b600080600080600060a086880312156108be57600080fd5b855194506020860151935060408601516108d781610821565b6060870151608088015191945092506108ef816107ca565b80915050929550929590935056fea264697066735822122011e746eea0ac87bbd379afc97759b435dcb4be0614049657b3f04af1d5e795c664736f6c63430008140033",
  "linkReferences": {},
  "deployedLinkReferences": {}
}