{
  "_format": "hh-sol-artifact-1",
  "contractName": "SwarmEscrow",
  "sourceName": "contracts/SwarmEscrow.sol",
  "abi": [
    {
      "inputs": [
        {
          "internalType": "address",
          "name": "_usdc",
          "type": "address"
        }
      ],
      "stateMutability": "nonpayable",
      "type": "constructor"
    },
    {
      "inputs": [],
      "name": "ReentrancyGuardReentrantCall",
      "type": "error"
    },
    {
      "inputs": [
        {
          "internalType": "address",
          "name": "token",
          "type": "address"
        }
      ],
      "name": "SafeERC20FailedOperation",
      "type": "error"
    },
    {
      "anonymous": false,
      "inputs": [
        {
          "indexed": true,
          "internalType": "bytes32",
          "name": "taskId",
          "type": "bytes32"
        },
        {
          "indexed": false,
          "internalType": "address[]",
          "name": "winners",
          "type": "address[]"
        }
      ],
      "name": "Settled",
      "type": "event"
    },
    {
      "anonymous": false,
      "inputs": [
        {
          "indexed": true,
          "internalType": "bytes32",
          "name": "taskId",
          "type": "bytes32"
        },
        {
          "indexed": true,
          "internalType": "address",
          "name": "agent",
          "type": "address"
        },
        {
          "indexed": false,
          "internalType": "uint256",
          "name": "amount",
          "type": "uint256"
        }
      ],
      "name": "Slashed",
      "type": "event"
    },
    {
      "anonymous": false,
      "inputs": [
        {
          "indexed": true,
          "internalType": "bytes32",
          "name": "taskId",
          "type": "bytes32"
        },
        {
          "indexed": true,
          "internalType": "address",
          "name": "agent",
          "type": "address"
        },
        {
          "indexed": false,
          "internalType": "uint256",
          "name": "amount",
          "type": "uint256"
        }
      ],
      "name": "Staked",
      "type": "event"
    },
    {
      "anonymous": false,
      "inputs": [
        {
          "indexed": true,
          "internalType": "bytes32",
          "name": "taskId",
          "type": "bytes32"
        },
        {
          "indexed": true,
          "internalType": "address",
          "name": "owner",
          "type": "address"
        },
        {
          "indexed": false,
          "internalType": "uint256",
          "name": "budget",
          "type": "uint256"
        }
      ],
      "name": "TaskCreated",
      "type": "event"
    },
    {
      "inputs": [
        {
          "internalType": "bytes32",
          "name": "taskId",
          "type": "bytes32"
        },
        {
          "internalType": "uint256",
          "name": "budget",
          "type": "uint256"
        }
      ],
      "name": "createTask",
      "outputs": [],
      "stateMutability": "nonpayable",
      "type": "function"
    },
    {
      "inputs": [],
      "name": "registry",
      "outputs": [
        {
          "internalType": "address",
          "name": "",
          "type": "address"
        }
      ],
      "stateMutability": "view",
      "type": "function"
    },
    {
      "inputs": [
        {
          "internalType": "address",
          "name": "_registry",
          "type": "address"
        },
        {
          "internalType": "address",
          "name": "_vault",
          "type": "address"
        }
      ],
      "name": "setAuthorities",
      "outputs": [],
      "stateMutability": "nonpayable",
      "type": "function"
    },
    {
      "inputs": [
        {
          "internalType": "bytes32",
          "name": "taskId",
          "type": "bytes32"
        },
        {
          "internalType": "address[]",
          "name": "winners",
          "type": "address[]"
        }
      ],
      "name": "settle",
      "outputs": [],
      "stateMutability": "nonpayable",
      "type": "function"
    },
    {
      "inputs": [
        {
          "internalType": "bytes32",
          "name": "taskId",
          "type": "bytes32"
        },
        {
          "internalType": "address",
          "name": "agent",
          "type": "address"
        }
      ],
      "name": "slash",
      "outputs": [],
      "stateMutability": "nonpayable",
      "type": "function"
    },
    {
      "inputs": [
        {
          "internalType": "bytes32",
          "name": "taskId",
          "type": "bytes32"
        },
        {
          "internalType": "uint256",
          "name": "amount",
          "type": "uint256"
        }
      ],
      "name": "stake",
      "outputs": [],
      "stateMutability": "nonpayable",
      "type": "function"
    },
    {
      "inputs": [
        {
          "internalType": "bytes32",
          "name": "",
          "type": "bytes32"
        },
        {
          "internalType": "address",
          "name": "",
          "type": "address"
        }
      ],
      "name": "stakes",
      "outputs": [
        {
          "internalType": "uint256",
          "name": "",
          "type": "uint256"
        }
      ],
      "stateMutability": "view",
      "type": "function"
    },
    {
      "inputs": [
        {
          "internalType": "bytes32",
          "name": "",
          "type": "bytes32"
        }
      ],
      "name": "tasks",
      "outputs": [
        {
          "internalType": "address",
          "name": "owner",
          "type": "address"
        },
        {
          "internalType": "uint256",
          "name": "budget",
          "type": "uint256"
        },
        {
          "internalType": "uint256",
          "name": "stakedTotal",
          "type": "uint256"
        },
        {
          "internalType": "bool",
          "name": "finalized",
          "type": "bool"
        }
      ],
      "stateMutability": "view",
      "type": "function"
    },
    {
      "inputs": [],
      "name": "usdc",
      "outputs": [
        {
          "internalType": "contract IERC20",
          "name": "",
          "type": "address"
        }
      ],
      "stateMutability": "view",
      "type": "function"
    },
    {
      "inputs": [],
      "name": "vault",
      "outputs": [
        {
          "internalType": "address",
          "name": "",
          "type": "address"
        }
      ],
      "stateMutability": "view",
      "type": "function"
    }
  ],
  "bytecode": "0x60a060405234801561001057600080fd5b50604051610ef3380380610ef383398101604081905261002f9161009f565b60016000556001600160a01b03811661008e5760405162461bcd60e51b815260206004820152601460248201527f496e76616c696420555344432061646472657373000000000000000000000000604482015260640160405180910390fd5b6001600160a01b03166080526100cf565b6000602082840312156100b157600080fd5b81516001600160a01b03811681146100c857600080fd5b9392505050565b608051610dee6101056000396000818160d0015281816103df0152818161063b0152818161079701526109370152610dee6000f3fe608060405234801561001057600080fd5b506004361061009e5760003560e01c80637b103999116100665780637b1039991461015e5780638caa523014610171578063a7b9828f14610184578063e579f500146101bd578063fbfa77cf1461022d57600080fd5b80632cf0abe5146100a3578063391a7102146100b85780633e413bee146100cb5780634a8a40731461010f5780636fbb5f621461014b575b600080fd5b6100b66100b1366004610b4a565b610240565b005b6100b66100c6366004610b76565b61045c565b6100f27f000000000000000000000000000000000000000000000000000000000000000081565b6040516001600160a01b0390911681526020015b60405180910390f35b6100b661011d366004610bf5565b600180546001600160a01b039384166001600160a01b03199182161790915560028054929093169116179055565b6100b6610159366004610c1f565b6106d7565b6001546100f2906001600160a01b031681565b6100b661017f366004610c1f565b610869565b6101af610192366004610b4a565b600460209081526000928352604080842090915290825290205481565b604051908152602001610106565b6102016101cb366004610c41565b600360208190526000918252604090912080546001820154600283015492909301546001600160a01b0390911692919060ff1684565b604080516001600160a01b03909516855260208501939093529183015215156060820152608001610106565b6002546100f2906001600160a01b031681565b6002546001600160a01b03161580159061026457506002546001600160a01b031633145b6102b55760405162461bcd60e51b815260206004820152601760248201527f43616c6c6572206973206e6f7420746865207661756c7400000000000000000060448201526064015b60405180910390fd5b6102bd6109f5565b60008281526003602052604090205482906001600160a01b03166102f35760405162461bcd60e51b81526004016102ac90610c5a565b6000818152600360208190526040909120015460ff16156103265760405162461bcd60e51b81526004016102ac90610c87565b60008381526004602090815260408083206001600160a01b03861684529091529020548061038a5760405162461bcd60e51b815260206004820152601160248201527009cde40e6e8c2d6ca40e8de40e6d8c2e6d607b1b60448201526064016102ac565b60008481526004602090815260408083206001600160a01b038716845282528083208390558683526003909152812060020180548392906103cc908490610ccd565b9091555061040890506001600160a01b037f00000000000000000000000000000000000000000000000000000000000000001661dead83610a1f565b826001600160a01b0316847f9de580357d3604ebca6b3a7ea5fec250912003c037421eb01869fcf2b15d13078360405161044491815260200190565b60405180910390a350506104586001600055565b5050565b6001546001600160a01b03161580159061048057506001546001600160a01b031633145b6104cc5760405162461bcd60e51b815260206004820152601a60248201527f43616c6c6572206973206e6f742074686520726567697374727900000000000060448201526064016102ac565b6104d46109f5565b60008381526003602052604090205483906001600160a01b031661050a5760405162461bcd60e51b81526004016102ac90610c5a565b6000818152600360208190526040909120015460ff161561053d5760405162461bcd60e51b81526004016102ac90610c87565b6000848152600360205260409020828061058f5760405162461bcd60e51b8152602060048201526013602482015272139bc81dda5b9b995c9cc81c1c9bdd9a591959606a1b60448201526064016102ac565b60008183600101546105a19190610ce6565b905060005b828110156106785760008787838181106105c2576105c2610d08565b90506020020160208101906105d79190610d1e565b60008a81526004602090815260408083206001600160a01b03851684529091528120549192506106078583610d40565b905080156106625760008b81526004602090815260408083206001600160a01b0380881685529252822091909155610662907f0000000000000000000000000000000000000000000000000000000000000000168483610a1f565b505050808061067090610d53565b9150506105a6565b5060038301805460ff1916600117905560405187907fe24922ac8cf2a1430fb8c7ce6a9125d7db5076a1eb2cefced90e82d6fcb24db0906106bc9089908990610d6c565b60405180910390a2505050506106d26001600055565b505050565b6106df6109f5565b6000828152600360205260409020546001600160a01b03161561073a5760405162461bcd60e51b81526020600482015260136024820152725461736b20616c72656164792065786973747360681b60448201526064016102ac565b6000811161078a5760405162461bcd60e51b815260206004820181905260248201527f427564676574206d7573742062652067726561746572207468616e207a65726f60448201526064016102ac565b6107bf6001600160a01b037f000000000000000000000000000000000000000000000000000000000000000016333084610a7e565b60408051608081018252338082526020808301858152600084860181815260608601828152898352600380865292889020965187546001600160a01b0319166001600160a01b039091161787559251600187015551600286015590519301805460ff191693151593909317909255915183815284917f5fb74283f874d0f894d0de9c856a2a842137dc2c21c621e080065c7b797c0095910160405180910390a36104586001600055565b6108716109f5565b60008281526003602052604090205482906001600160a01b03166108a75760405162461bcd60e51b81526004016102ac90610c5a565b6000818152600360208190526040909120015460ff16156108da5760405162461bcd60e51b81526004016102ac90610c87565b6000821161092a5760405162461bcd60e51b815260206004820152601f60248201527f5374616b65206d7573742062652067726561746572207468616e207a65726f0060448201526064016102ac565b61095f6001600160a01b037f000000000000000000000000000000000000000000000000000000000000000016333085610a7e565b600083815260046020908152604080832033845290915281208054849290610988908490610d40565b9091555050600083815260036020526040812060020180548492906109ae908490610d40565b9091555050604051828152339084907f33d3d5394940f875165e970f73650b86770fcee50f641313bb760de473fb601f9060200160405180910390a3506104586001600055565b600260005403610a1857604051633ee5aeb560e01b815260040160405180910390fd5b6002600055565b6040516001600160a01b038381166024830152604482018390526106d291859182169063a9059cbb906064015b604051602081830303815290604052915060e01b6020820180516001600160e01b038381831617835250505050610abd565b6040516001600160a01b038481166024830152838116604483015260648201839052610ab79186918216906323b872dd90608401610a4c565b50505050565b600080602060008451602086016000885af180610ae0576040513d6000823e3d81fd5b50506000513d91508115610af8578060011415610b05565b6001600160a01b0384163b155b15610ab757604051635274afe760e01b81526001600160a01b03851660048201526024016102ac565b80356001600160a01b0381168114610b4557600080fd5b919050565b60008060408385031215610b5d57600080fd5b82359150610b6d60208401610b2e565b90509250929050565b600080600060408486031215610b8b57600080fd5b83359250602084013567ffffffffffffffff80821115610baa57600080fd5b818601915086601f830112610bbe57600080fd5b813581811115610bcd57600080fd5b8760208260051b8501011115610be257600080fd5b6020830194508093505050509250925092565b60008060408385031215610c0857600080fd5b610c1183610b2e565b9150610b6d60208401610b2e565b60008060408385031215610c3257600080fd5b50508035926020909101359150565b600060208284031215610c5357600080fd5b5035919050565b60208082526013908201527215185cdac8191bd95cc81b9bdd08195e1a5cdd606a1b604082015260600190565b60208082526016908201527515185cdac8185b1c9958591e48199a5b985b1a5e995960521b604082015260600190565b634e487b7160e01b600052601160045260246000fd5b81810381811115610ce057610ce0610cb7565b92915050565b600082610d0357634e487b7160e01b600052601260045260246000fd5b500490565b634e487b7160e01b600052603260045260246000fd5b600060208284031215610d3057600080fd5b610d3982610b2e565b9392505050565b80820180821115610ce057610ce0610cb7565b600060018201610d6557610d65610cb7565b5060010190565b60208082528181018390526000908460408401835b86811015610dad576001600160a01b03610d9a84610b2e565b1682529183019190830190600101610d81565b50969550505050505056fea2646970667358221220ba7b58d057c32011b05d13c8bd06809c6657a864ea6d5a5e0cf7703de26bbc4664736f6c63430008140033",
  "linkReferences": {},
  "deployedLinkReferences": {}
}